{
  "address": "0xf913C388302996575E2dA5922E19048a63e75063",
  "abi": [
    {
      "constant": true,
      "inputs": [],
      "name": "hasInitialized",
      "outputs": [
        {
          "name": "",
          "type": "bool"
        }
      ],
      "payable": false,
      "stateMutability": "view",
      "type": "function"
    },
    {
      "constant": true,
      "inputs": [],
      "name": "cfa",
      "outputs": [
        {
          "name": "",
          "type": "address"
        }
      ],
      "payable": false,
      "stateMutability": "view",
      "type": "function"
    },
    {
      "constant": false,
      "inputs": [
        {
          "name": "_token",
          "type": "address"
        }
      ],
      "name": "deleteOwnFlow",
      "outputs": [],
      "payable": false,
      "stateMutability": "nonpayable",
      "type": "function"
    },
    {
      "constant": true,
      "inputs": [
        {
          "name": "_script",
          "type": "bytes"
        }
      ],
      "name": "getEVMScriptExecutor",
      "outputs": [
        {
          "name": "",
          "type": "address"
        }
      ],
      "payable": false,
      "stateMutability": "view",
      "type": "function"
    },
    {
      "constant": true,
      "inputs": [],
      "name": "MANAGE_STREAMS_ROLE",
      "outputs": [
        {
          "name": "",
          "type": "bytes32"
        }
      ],
      "payable": false,
      "stateMutability": "view",
      "type": "function"
    },
    {
      "constant": true,
      "inputs": [],
      "name": "getRecoveryVault",
      "outputs": [
        {
          "name": "",
          "type": "address"
        }
      ],
      "payable": false,
      "stateMutability": "view",
      "type": "function"
    },
    {
      "constant": false,
      "inputs": [
        {
          "name": "_token",
          "type": "address"
        },
        {
          "name": "_amount",
          "type": "uint256"
        },
        {
          "name": "_isExternalDeposit",
          "type": "bool"
        }
      ],
      "name": "deposit",
      "outputs": [],
      "payable": false,
      "stateMutability": "nonpayable",
      "type": "function"
    },
    {
      "constant": false,
      "inputs": [
        {
          "name": "_token",
          "type": "address"
        },
        {
          "name": "_receiver",
          "type": "address"
        },
        {
          "name": "_flowRate",
          "type": "int96"
        },
        {
          "name": "_description",
          "type": "bytes"
        }
      ],
      "name": "updateFlow",
      "outputs": [],
      "payable": false,
      "stateMutability": "nonpayable",
      "type": "function"
    },
    {
      "constant": false,
      "inputs": [
        {
          "name": "_token",
          "type": "address"
        },
        {
          "name": "_receiver",
          "type": "address"
        },
        {
          "name": "_flowRate",
          "type": "int96"
        },
        {
          "name": "_description",
          "type": "bytes"
        }
      ],
      "name": "createFlow",
      "outputs": [],
      "payable": false,
      "stateMutability": "nonpayable",
      "type": "function"
    },
    {
      "constant": true,
      "inputs": [
        {
          "name": "token",
          "type": "address"
        }
      ],
      "name": "allowRecoverability",
      "outputs": [
        {
          "name": "",
          "type": "bool"
        }
      ],
      "payable": false,
      "stateMutability": "view",
      "type": "function"
    },
    {
      "constant": true,
      "inputs": [],
      "name": "appId",
      "outputs": [
        {
          "name": "",
          "type": "bytes32"
        }
      ],
      "payable": false,
      "stateMutability": "view",
      "type": "function"
    },
    {
      "constant": true,
      "inputs": [],
      "name": "getInitializationBlock",
      "outputs": [
        {
          "name": "",
          "type": "uint256"
        }
      ],
      "payable": false,
      "stateMutability": "view",
      "type": "function"
    },
    {
      "constant": false,
      "inputs": [
        {
          "name": "_token",
          "type": "address"
        }
      ],
      "name": "transferToVault",
      "outputs": [],
      "payable": false,
      "stateMutability": "nonpayable",
      "type": "function"
    },
    {
      "constant": true,
      "inputs": [
        {
          "name": "_sender",
          "type": "address"
        },
        {
          "name": "_role",
          "type": "bytes32"
        },
        {
          "name": "_params",
          "type": "uint256[]"
        }
      ],
      "name": "canPerform",
      "outputs": [
        {
          "name": "",
          "type": "bool"
        }
      ],
      "payable": false,
      "stateMutability": "view",
      "type": "function"
    },
    {
      "constant": true,
      "inputs": [],
      "name": "getEVMScriptRegistry",
      "outputs": [
        {
          "name": "",
          "type": "address"
        }
      ],
      "payable": false,
      "stateMutability": "view",
      "type": "function"
    },
    {
      "constant": false,
      "inputs": [
        {
          "name": "_agent",
          "type": "address"
        }
      ],
      "name": "setAgent",
      "outputs": [],
      "payable": false,
      "stateMutability": "nonpayable",
      "type": "function"
    },
    {
      "constant": true,
      "inputs": [],
      "name": "SET_AGENT_ROLE",
      "outputs": [
        {
          "name": "",
          "type": "bytes32"
        }
      ],
      "payable": false,
      "stateMutability": "view",
      "type": "function"
    },
    {
      "constant": false,
      "inputs": [
        {
          "name": "_agent",
          "type": "address"
        },
        {
          "name": "_host",
          "type": "address"
        },
        {
          "name": "_cfa",
          "type": "address"
        }
      ],
      "name": "initialize",
      "outputs": [],
      "payable": false,
      "stateMutability": "nonpayable",
      "type": "function"
    },
    {
      "constant": true,
      "inputs": [],
      "name": "kernel",
      "outputs": [
        {
          "name": "",
          "type": "address"
        }
      ],
      "payable": false,
      "stateMutability": "view",
      "type": "function"
    },
    {
      "constant": false,
      "inputs": [
        {
          "name": "_token",
          "type": "address"
        },
        {
          "name": "_receiver",
          "type": "address"
        },
        {
          "name": "_amount",
          "type": "uint256"
        }
      ],
      "name": "withdraw",
      "outputs": [],
      "payable": false,
      "stateMutability": "nonpayable",
      "type": "function"
    },
    {
      "constant": true,
      "inputs": [],
      "name": "isPetrified",
      "outputs": [
        {
          "name": "",
          "type": "bool"
        }
      ],
      "payable": false,
      "stateMutability": "view",
      "type": "function"
    },
    {
      "constant": false,
      "inputs": [
        {
          "name": "_token",
          "type": "address"
        },
        {
          "name": "_receiver",
          "type": "address"
        }
      ],
      "name": "deleteFlow",
      "outputs": [],
      "payable": false,
      "stateMutability": "nonpayable",
      "type": "function"
    },
    {
      "constant": true,
      "inputs": [],
      "name": "host",
      "outputs": [
        {
          "name": "",
          "type": "address"
        }
      ],
      "payable": false,
      "stateMutability": "view",
      "type": "function"
    },
    {
      "constant": true,
      "inputs": [],
      "name": "agent",
      "outputs": [
        {
          "name": "",
          "type": "address"
        }
      ],
      "payable": false,
      "stateMutability": "view",
      "type": "function"
    },
    {
      "anonymous": false,
      "inputs": [
        {
          "indexed": false,
          "name": "agent",
          "type": "address"
        }
      ],
      "name": "NewAgentSet",
      "type": "event"
    },
    {
      "anonymous": false,
      "inputs": [
        {
          "indexed": true,
          "name": "executor",
          "type": "address"
        },
        {
          "indexed": false,
          "name": "script",
          "type": "bytes"
        },
        {
          "indexed": false,
          "name": "input",
          "type": "bytes"
        },
        {
          "indexed": false,
          "name": "returnData",
          "type": "bytes"
        }
      ],
      "name": "ScriptResult",
      "type": "event"
    },
    {
      "anonymous": false,
      "inputs": [
        {
          "indexed": true,
          "name": "vault",
          "type": "address"
        },
        {
          "indexed": true,
          "name": "token",
          "type": "address"
        },
        {
          "indexed": false,
          "name": "amount",
          "type": "uint256"
        }
      ],
      "name": "RecoverToVault",
      "type": "event"
    }
  ],
  "transactionHash": "0x3c3f03f0d31b92c106706cbd0dc56ad9bb559c8389e6d7a49f22feedbc869613",
  "args": [],
  "numDeployments": 1,
  "solcInputHash": "e84929aa27c7a4b72a8484d91f679043",
  "bytecode": "0x6080604052620000176401000000006200001d810204565b6200023b565b6200003064010000000062000125810204565b60408051808201909152601881527f494e49545f414c52454144595f494e495449414c495a45440000000000000000602082015290156200010c576040517f08c379a00000000000000000000000000000000000000000000000000000000081526004018080602001828103825283818151815260200191508051906020019080838360005b83811015620000d0578181015183820152602001620000b6565b50505050905090810190601f168015620000fe5780820380516001836020036101000a031916815260200191505b509250505060405180910390fd5b506200012360001964010000000062000154810204565b565b60006200014f600080516020620037a78339815191526401000000006200321c6200023382021704565b905090565b6200016764010000000062000125810204565b60408051808201909152601881527f494e49545f414c52454144595f494e495449414c495a454400000000000000006020820152901562000206576040517f08c379a000000000000000000000000000000000000000000000000000000000815260040180806020018281038252838181518152602001915080519060200190808383600083811015620000d0578181015183820152602001620000b6565b5062000230600080516020620037a7833981519152826401000000006200352c6200023782021704565b50565b5490565b9055565b61355c806200024b6000396000f30060806040526004361061013d5763ffffffff7c01000000000000000000000000000000000000000000000000000000006000350416630803fac081146101425780631054df8c1461016b5780631d0558f7146101a95780632914b9bd146101d95780632e110ede1461023257806332f0a3b5146102595780633edd11281461026e57806350209a62146102a457806362fc305e146102ed5780637e7db6e11461033657806380afdea8146103645780638b3dd749146103795780639d4941d81461038e578063a1658fad146103bc578063a479e50814610430578063bcf685ed14610445578063c04c95b814610473578063c0c53b8b14610488578063d4aae0c4146104c2578063d9caed12146104d7578063de4796ed1461050e578063ec7cb70114610523578063f437bc5914610557578063f5ff5c761461056c575b600080fd5b34801561014e57600080fd5b50610157610581565b604080519115158252519081900360200190f35b34801561017757600080fd5b506101806105aa565b6040805173ffffffffffffffffffffffffffffffffffffffff9092168252519081900360200190f35b3480156101b557600080fd5b506101d773ffffffffffffffffffffffffffffffffffffffff600435166105c6565b005b3480156101e557600080fd5b506040805160206004803580820135601f8101849004840285018401909552848452610180943694929360249392840191908190840183828082843750949750610b839650505050505050565b34801561023e57600080fd5b50610247610c8f565b60408051918252519081900360200190f35b34801561026557600080fd5b50610180610cb3565b34801561027a57600080fd5b506101d773ffffffffffffffffffffffffffffffffffffffff600435166024356044351515610d51565b3480156102b057600080fd5b506101d773ffffffffffffffffffffffffffffffffffffffff600480358216916024803590911691604435600b0b916064359081019101356113e9565b3480156102f957600080fd5b506101d773ffffffffffffffffffffffffffffffffffffffff600480358216916024803590911691604435600b0b9160643590810191013561185b565b34801561034257600080fd5b5061015773ffffffffffffffffffffffffffffffffffffffff60043516611b50565b34801561037057600080fd5b50610247611b56565b34801561038557600080fd5b50610247611b86565b34801561039a57600080fd5b506101d773ffffffffffffffffffffffffffffffffffffffff60043516611bb1565b3480156103c857600080fd5b50604080516020600460443581810135838102808601850190965280855261015795833573ffffffffffffffffffffffffffffffffffffffff16956024803596369695606495939492019291829185019084908082843750949750611ed39650505050505050565b34801561043c57600080fd5b50610180612063565b34801561045157600080fd5b506101d773ffffffffffffffffffffffffffffffffffffffff60043516612125565b34801561047f57600080fd5b50610247612324565b34801561049457600080fd5b506101d773ffffffffffffffffffffffffffffffffffffffff60043581169060243581169060443516612348565b3480156104ce57600080fd5b50610180612651565b3480156104e357600080fd5b506101d773ffffffffffffffffffffffffffffffffffffffff6004358116906024351660443561267c565b34801561051a57600080fd5b50610157612a73565b34801561052f57600080fd5b506101d773ffffffffffffffffffffffffffffffffffffffff60043581169060243516612aa4565b34801561056357600080fd5b50610180612edd565b34801561057857600080fd5b50610180612ef9565b60008061058c611b86565b905080158015906105a45750806105a1612f15565b10155b91505090565b60015473ffffffffffffffffffffffffffffffffffffffff1681565b600060606105d2610581565b60408051808201909152601481527f494e49545f4e4f545f494e495449414c495a454400000000000000000000000060208201529015156106ab576040517f08c379a00000000000000000000000000000000000000000000000000000000081526004018080602001828103825283818151815260200191508051906020019080838360005b83811015610670578181015183820152602001610658565b50505050905090810190601f16801561069d5780820380516001836020036101000a031916815260200191505b509250505060405180910390fd5b508260006106b882612f19565b606060405190810160405280602281526020017f5355504552464c5549445f5355504552544f4b454e5f4e4f545f434f4e54524181526020017f435400000000000000000000000000000000000000000000000000000000000081525090151561077e576040517f08c379a000000000000000000000000000000000000000000000000000000000815260040180806020018281038252838181518152602001915080519060200190808383600083811015610670578181015183820152602001610658565b506040805160048152602481019091526020810180517bffffffffffffffffffffffffffffffffffffffffffffffffffffffff167f20bc4425000000000000000000000000000000000000000000000000000000001790526107e1908390612f53565b5060408051808201909152601d81527f5355504552464c5549445f494e56414c49445f5355504552544f4b454e0000006020820152909150811515610882576040517f08c379a000000000000000000000000000000000000000000000000000000000815260040180806020018281038252838181518152602001915080519060200190808383600083811015610670578181015183820152602001610658565b50600154600254604080517fe6a1e88800000000000000000000000000000000000000000000000000000000815273ffffffffffffffffffffffffffffffffffffffff898116600483015292831660248201523360448201529051919092169163e6a1e8889160648083019260809291908290030181600087803b15801561090957600080fd5b505af115801561091d573d6000803e3d6000fd5b505050506040513d608081101561093357600080fd5b505160408051606081018252602581527f5355504552464c5549445f53454e4445525f43414e5f4e4f545f44454c45544560208201527f5f464c4f57000000000000000000000000000000000000000000000000000000918101919091529094508415156109fd576040517f08c379a000000000000000000000000000000000000000000000000000000000815260040180806020018281038252838181518152602001915080519060200190808383600083811015610670578181015183820152602001610658565b50600254604080516000808252602082019283905273ffffffffffffffffffffffffffffffffffffffff808a16604484019081529416606483018190523360848401819052608060a48501908152845160c486018190527fb4b333c600000000000000000000000000000000000000000000000000000000978d97949693959394909360e4860192908190849084905b83811015610aa5578181015183820152602001610a8d565b50505050905090810190601f168015610ad25780820380516001836020036101000a031916815260200191505b50604080517fffffffffffffffffffffffffffffffffffffffffffffffffffffffffffffffe0818403018152918152602080830180517bffffffffffffffffffffffffffffffffffffffffffffffffffffffff167fffffffff00000000000000000000000000000000000000000000000000000000909b169a909a1790995280516000808252998101909152909a50610b7c978b97509095509350610b7692505050565b50612f84565b5050505050565b6000610b8d612063565b73ffffffffffffffffffffffffffffffffffffffff166304bf2a7f836040518263ffffffff167c01000000000000000000000000000000000000000000000000000000000281526004018080602001828103825283818151815260200191508051906020019080838360005b83811015610c11578181015183820152602001610bf9565b50505050905090810190601f168015610c3e5780820380516001836020036101000a031916815260200191505b5092505050602060405180830381600087803b158015610c5d57600080fd5b505af1158015610c71573d6000803e3d6000fd5b505050506040513d6020811015610c8757600080fd5b505192915050565b7f56c3496db27efc6d83ab1a24218f016191aab8835d442bc0fa8502f327132cbe81565b6000610cbd612651565b73ffffffffffffffffffffffffffffffffffffffff166332f0a3b56040518163ffffffff167c0100000000000000000000000000000000000000000000000000000000028152600401602060405180830381600087803b158015610d2057600080fd5b505af1158015610d34573d6000803e3d6000fd5b505050506040513d6020811015610d4a57600080fd5b5051905090565b610d59610581565b60408051808201909152601481527f494e49545f4e4f545f494e495449414c495a45440000000000000000000000006020820152901515610df6576040517f08c379a000000000000000000000000000000000000000000000000000000000815260040180806020018281038252838181518152602001915080519060200190808383600083811015610670578181015183820152602001610658565b50826000610e0382612f19565b606060405190810160405280602281526020017f5355504552464c5549445f5355504552544f4b454e5f4e4f545f434f4e54524181526020017f4354000000000000000000000000000000000000000000000000000000000000815250901515610ec9576040517f08c379a000000000000000000000000000000000000000000000000000000000815260040180806020018281038252838181518152602001915080519060200190808383600083811015610670578181015183820152602001610658565b506040805160048152602481019091526020810180517bffffffffffffffffffffffffffffffffffffffffffffffffffffffff167f20bc442500000000000000000000000000000000000000000000000000000000179052610f2c908390612f53565b5060408051808201909152601d81527f5355504552464c5549445f494e56414c49445f5355504552544f4b454e0000006020820152909150811515610fcd576040517f08c379a000000000000000000000000000000000000000000000000000000000815260040180806020018281038252838181518152602001915080519060200190808383600083811015610670578181015183820152602001610658565b5060408051808201909152601e81527f5355504552464c5549445f4445504f5349545f414d4f554e545f5a45524f000060208201526000851161106c576040517f08c379a000000000000000000000000000000000000000000000000000000000815260040180806020018281038252838181518152602001915080519060200190808383600083811015610670578181015183820152602001610658565b5082156111e157604080517f23b872dd00000000000000000000000000000000000000000000000000000000815233600482015230602482015260448101869052905173ffffffffffffffffffffffffffffffffffffffff8716916323b872dd9160648083019260209291908290030181600087803b1580156110ee57600080fd5b505af1158015611102573d6000803e3d6000fd5b505050506040513d602081101561111857600080fd5b505160408051606081018252602a81527f5355504552464c5549445f5355504552544f4b454e5f5452414e534645525f4660208201527f524f4d5f52455645525400000000000000000000000000000000000000000000918101919091529015156111df576040517f08c379a000000000000000000000000000000000000000000000000000000000815260040180806020018281038252838181518152602001915080519060200190808383600083811015610670578181015183820152602001610658565b505b600254604080517f095ea7b300000000000000000000000000000000000000000000000000000000815273ffffffffffffffffffffffffffffffffffffffff92831660048201526024810187905290519187169163095ea7b3916044808201926020929091908290030181600087803b15801561125d57600080fd5b505af1158015611271573d6000803e3d6000fd5b505050506040513d602081101561128757600080fd5b505160408051606081018252602481527f5355504552464c5549445f5355504552544f4b454e5f415050524f56455f464160208201527f494c4544000000000000000000000000000000000000000000000000000000009181019190915290151561134e576040517f08c379a000000000000000000000000000000000000000000000000000000000815260040180806020018281038252838181518152602001915080519060200190808383600083811015610670578181015183820152602001610658565b50600254604080517f47e7ef2400000000000000000000000000000000000000000000000000000000815273ffffffffffffffffffffffffffffffffffffffff888116600483015260248201889052915191909216916347e7ef2491604480830192600092919082900301818387803b1580156113ca57600080fd5b505af11580156113de573d6000803e3d6000fd5b505050505050505050565b604080516000808252602082019092526060917f56c3496db27efc6d83ab1a24218f016191aab8835d442bc0fa8502f327132cbe9161142d91339184915b50611ed3565b60408051808201909152600f81527f4150505f415554485f4641494c4544000000000000000000000000000000000060208201529015156114ca576040517f08c379a000000000000000000000000000000000000000000000000000000000815260040180806020018281038252838181518152602001915080519060200190808383600083811015610670578181015183820152602001610658565b508660006114d782612f19565b606060405190810160405280602281526020017f5355504552464c5549445f5355504552544f4b454e5f4e4f545f434f4e54524181526020017f435400000000000000000000000000000000000000000000000000000000000081525090151561159d576040517f08c379a000000000000000000000000000000000000000000000000000000000815260040180806020018281038252838181518152602001915080519060200190808383600083811015610670578181015183820152602001610658565b506040805160048152602481019091526020810180517bffffffffffffffffffffffffffffffffffffffffffffffffffffffff167f20bc442500000000000000000000000000000000000000000000000000000000179052611600908390612f53565b5060408051808201909152601d81527f5355504552464c5549445f494e56414c49445f5355504552544f4b454e00000060208201529091508115156116a1576040517f08c379a000000000000000000000000000000000000000000000000000000000815260040180806020018281038252838181518152602001915080519060200190808383600083811015610670578181015183820152602001610658565b50604080516000808252602082019092527f50209a6200000000000000000000000000000000000000000000000000000000918b918b918b91905b50604051602401808573ffffffffffffffffffffffffffffffffffffffff1673ffffffffffffffffffffffffffffffffffffffff1681526020018473ffffffffffffffffffffffffffffffffffffffff1673ffffffffffffffffffffffffffffffffffffffff16815260200183600b0b600b0b815260200180602001828103825283818151815260200191508051906020019080838360005b8381101561178d578181015183820152602001611775565b50505050905090810190601f1680156117ba5780820380516001836020036101000a031916815260200191505b5095505050505050604051602081830303815290604052907bffffffffffffffffffffffffffffffffffffffffffffffffffffffff19166020820180517bffffffffffffffffffffffffffffffffffffffffffffffffffffffff838183161783525050505093506113de8487878080601f01602080910402602001604051908101604052809392919081815260200183838082843750612f84945050505050565b604080516000808252602082019092526060917f56c3496db27efc6d83ab1a24218f016191aab8835d442bc0fa8502f327132cbe9161189d9133918491611427565b60408051808201909152600f81527f4150505f415554485f4641494c45440000000000000000000000000000000000602082015290151561193a576040517f08c379a000000000000000000000000000000000000000000000000000000000815260040180806020018281038252838181518152602001915080519060200190808383600083811015610670578181015183820152602001610658565b5086600061194782612f19565b606060405190810160405280602281526020017f5355504552464c5549445f5355504552544f4b454e5f4e4f545f434f4e54524181526020017f4354000000000000000000000000000000000000000000000000000000000000815250901515611a0d576040517f08c379a000000000000000000000000000000000000000000000000000000000815260040180806020018281038252838181518152602001915080519060200190808383600083811015610670578181015183820152602001610658565b506040805160048152602481019091526020810180517bffffffffffffffffffffffffffffffffffffffffffffffffffffffff167f20bc442500000000000000000000000000000000000000000000000000000000179052611a70908390612f53565b5060408051808201909152601d81527f5355504552464c5549445f494e56414c49445f5355504552544f4b454e0000006020820152909150811515611b11576040517f08c379a000000000000000000000000000000000000000000000000000000000815260040180806020018281038252838181518152602001915080519060200190808383600083811015610670578181015183820152602001610658565b50604080516000808252602082019092527f62fc305e00000000000000000000000000000000000000000000000000000000918b918b918b91906116dc565b50600190565b6000611b817fd625496217aa6a3453eecb9c3489dc5a53e6c67b444329ea2b2cbc9ff547639b61321c565b905090565b6000611b817febb05b386a8d34882b8711d156f463690983dc47815980fb82aeeff1aa43579e61321c565b6000806000611bbf84611b50565b60408051808201909152601281527f5245434f5645525f444953414c4c4f57454400000000000000000000000000006020820152901515611c5c576040517f08c379a000000000000000000000000000000000000000000000000000000000815260040180806020018281038252838181518152602001915080519060200190808383600083811015610670578181015183820152602001610658565b50611c65610cb3565b9250611c7083612f19565b60408051808201909152601a81527f5245434f5645525f5641554c545f4e4f545f434f4e54524143540000000000006020820152901515611d0d576040517f08c379a000000000000000000000000000000000000000000000000000000000815260040180806020018281038252838181518152602001915080519060200190808383600083811015610670578181015183820152602001610658565b5073ffffffffffffffffffffffffffffffffffffffff84161515611d78576040513031925073ffffffffffffffffffffffffffffffffffffffff84169083156108fc029084906000818181858888f19350505050158015611d72573d6000803e3d6000fd5b50611e68565b5082611da073ffffffffffffffffffffffffffffffffffffffff82163063ffffffff61322416565b9150611dc973ffffffffffffffffffffffffffffffffffffffff8216848463ffffffff61335d16565b60408051808201909152601d81527f5245434f5645525f544f4b454e5f5452414e534645525f4641494c45440000006020820152901515611e66576040517f08c379a000000000000000000000000000000000000000000000000000000000815260040180806020018281038252838181518152602001915080519060200190808383600083811015610670578181015183820152602001610658565b505b8373ffffffffffffffffffffffffffffffffffffffff168373ffffffffffffffffffffffffffffffffffffffff167f596caf56044b55fb8c4ca640089bbc2b63cae3e978b851f5745cbb7c5b288e02846040518082815260200191505060405180910390a350505050565b600080611ede610581565b1515611eed576000915061205b565b611ef5612651565b905073ffffffffffffffffffffffffffffffffffffffff81161515611f1d576000915061205b565b8073ffffffffffffffffffffffffffffffffffffffff1663fdef9106863087611f45886133f5565b6040517c010000000000000000000000000000000000000000000000000000000063ffffffff871602815273ffffffffffffffffffffffffffffffffffffffff808616600483019081529085166024830152604482018490526080606483019081528351608484015283519192909160a490910190602085019080838360005b83811015611fdd578181015183820152602001611fc5565b50505050905090810190601f16801561200a5780820380516001836020036101000a031916815260200191505b5095505050505050602060405180830381600087803b15801561202c57600080fd5b505af1158015612040573d6000803e3d6000fd5b505050506040513d602081101561205657600080fd5b505191505b509392505050565b60008061206e612651565b604080517fbe00bbd80000000000000000000000000000000000000000000000000000000081527fd6f028ca0e8edb4a8c9757ca4fdccab25fa1e0317da1188108f7d2dee14902fb60048201527fddbcfd564f642ab5627cf68b9b7d374fb4f8a36e941a75d89c87998cef03bd616024820152905173ffffffffffffffffffffffffffffffffffffffff929092169163be00bbd8916044808201926020929091908290030181600087803b158015610c5d57600080fd5b604080516000808252602082019092527ff57d195c0663dd0e8a2210bb519e2b7de35301795015198efff16e9a2be238c891612165913391849190611427565b60408051808201909152600f81527f4150505f415554485f4641494c454400000000000000000000000000000000006020820152901515612202576040517f08c379a000000000000000000000000000000000000000000000000000000000815260040180806020018281038252838181518152602001915080519060200190808383600083811015610670578181015183820152602001610658565b5061220c82612f19565b60408051808201909152601d81527f5355504552464c5549445f4147454e545f4e4f545f434f4e545241435400000060208201529015156122a9576040517f08c379a000000000000000000000000000000000000000000000000000000000815260040180806020018281038252838181518152602001915080519060200190808383600083811015610670578181015183820152602001610658565b506002805473ffffffffffffffffffffffffffffffffffffffff84167fffffffffffffffffffffffff0000000000000000000000000000000000000000909116811790915560408051918252517f6759328bfac2a29b3078466bbf57e0d64ade4757344567c7cbd3a494eeca526c9181900360200190a15050565b7ff57d195c0663dd0e8a2210bb519e2b7de35301795015198efff16e9a2be238c881565b612350611b86565b60408051808201909152601881527f494e49545f414c52454144595f494e495449414c495a45440000000000000000602082015290156123ec576040517f08c379a000000000000000000000000000000000000000000000000000000000815260040180806020018281038252838181518152602001915080519060200190808383600083811015610670578181015183820152602001610658565b506123f683612f19565b60408051808201909152601d81527f5355504552464c5549445f4147454e545f4e4f545f434f4e54524143540000006020820152901515612493576040517f08c379a000000000000000000000000000000000000000000000000000000000815260040180806020018281038252838181518152602001915080519060200190808383600083811015610670578181015183820152602001610658565b5061249d82612f19565b60408051808201909152601c81527f5355504552464c5549445f484f53545f4e4f545f434f4e545241435400000000602082015290151561253a576040517f08c379a000000000000000000000000000000000000000000000000000000000815260040180806020018281038252838181518152602001915080519060200190808383600083811015610670578181015183820152602001610658565b5061254481612f19565b60408051808201909152601b81527f5355504552464c5549445f4346415f4e4f545f434f4e5452414354000000000060208201529015156125e1576040517f08c379a000000000000000000000000000000000000000000000000000000000815260040180806020018281038252838181518152602001915080519060200190808383600083811015610670578181015183820152602001610658565b506002805473ffffffffffffffffffffffffffffffffffffffff8086167fffffffffffffffffffffffff00000000000000000000000000000000000000009283161790925560008054858416908316179055600180549284169290911691909117905561264c6133ff565b505050565b6000611b817f4172f0f7d2289153072b0a6ca36959e0cbe2efc3afe50fc81636caa96338137b61321c565b604080516000808252602082019092527f56c3496db27efc6d83ab1a24218f016191aab8835d442bc0fa8502f327132cbe916126bc913391849190611427565b60408051808201909152600f81527f4150505f415554485f4641494c454400000000000000000000000000000000006020820152901515612759576040517f08c379a000000000000000000000000000000000000000000000000000000000815260040180806020018281038252838181518152602001915080519060200190808383600083811015610670578181015183820152602001610658565b5083600061276682612f19565b606060405190810160405280602281526020017f5355504552464c5549445f5355504552544f4b454e5f4e4f545f434f4e54524181526020017f435400000000000000000000000000000000000000000000000000000000000081525090151561282c576040517f08c379a000000000000000000000000000000000000000000000000000000000815260040180806020018281038252838181518152602001915080519060200190808383600083811015610670578181015183820152602001610658565b506040805160048152602481019091526020810180517bffffffffffffffffffffffffffffffffffffffffffffffffffffffff167f20bc44250000000000000000000000000000000000000000000000000000000017905261288f908390612f53565b5060408051808201909152601d81527f5355504552464c5549445f494e56414c49445f5355504552544f4b454e0000006020820152909150811515612930576040517f08c379a000000000000000000000000000000000000000000000000000000000815260040180806020018281038252838181518152602001915080519060200190808383600083811015610670578181015183820152602001610658565b5060408051808201909152601f81527f5355504552464c5549445f57495448445241575f414d4f554e545f5a45524f006020820152600085116129cf576040517f08c379a000000000000000000000000000000000000000000000000000000000815260040180806020018281038252838181518152602001915080519060200190808383600083811015610670578181015183820152602001610658565b50600254604080517fbeabacc800000000000000000000000000000000000000000000000000000000815273ffffffffffffffffffffffffffffffffffffffff89811660048301528881166024830152604482018890529151919092169163beabacc891606480830192600092919082900301818387803b158015612a5357600080fd5b505af1158015612a67573d6000803e3d6000fd5b50505050505050505050565b60007fffffffffffffffffffffffffffffffffffffffffffffffffffffffffffffffff612a9e611b86565b14905090565b604080516000808252602082019092526060917f56c3496db27efc6d83ab1a24218f016191aab8835d442bc0fa8502f327132cbe91612ae69133918491611427565b60408051808201909152600f81527f4150505f415554485f4641494c454400000000000000000000000000000000006020820152901515612b83576040517f08c379a000000000000000000000000000000000000000000000000000000000815260040180806020018281038252838181518152602001915080519060200190808383600083811015610670578181015183820152602001610658565b50836000612b9082612f19565b606060405190810160405280602281526020017f5355504552464c5549445f5355504552544f4b454e5f4e4f545f434f4e54524181526020017f4354000000000000000000000000000000000000000000000000000000000000815250901515612c56576040517f08c379a000000000000000000000000000000000000000000000000000000000815260040180806020018281038252838181518152602001915080519060200190808383600083811015610670578181015183820152602001610658565b506040805160048152602481019091526020810180517bffffffffffffffffffffffffffffffffffffffffffffffffffffffff167f20bc442500000000000000000000000000000000000000000000000000000000179052612cb9908390612f53565b5060408051808201909152601d81527f5355504552464c5549445f494e56414c49445f5355504552544f4b454e0000006020820152909150811515612d5a576040517f08c379a000000000000000000000000000000000000000000000000000000000815260040180806020018281038252838181518152602001915080519060200190808383600083811015610670578181015183820152602001610658565b50600254604080516000808252602082019283905273ffffffffffffffffffffffffffffffffffffffff808b166044840190815294811660648401819052908a166084840152608060a48401908152835160c485018190527fb4b333c600000000000000000000000000000000000000000000000000000000968d9693958d95909491939260e4860192918190849084905b83811015612e04578181015183820152602001612dec565b50505050905090810190601f168015612e315780820380516001836020036101000a031916815260200191505b50604080517fffffffffffffffffffffffffffffffffffffffffffffffffffffffffffffffe0818403018152918152602080830180517bffffffffffffffffffffffffffffffffffffffffffffffffffffffff167fffffffff00000000000000000000000000000000000000000000000000000000909b169a909a1790995280516000808252998101909152909b50612ed5978c97509095509350610b7692505050565b505050505050565b60005473ffffffffffffffffffffffffffffffffffffffff1681565b60025473ffffffffffffffffffffffffffffffffffffffff1681565b4390565b60008073ffffffffffffffffffffffffffffffffffffffff83161515612f425760009150612f4d565b823b90506000811191505b50919050565b6000806000806040516020818751602089018a5afa92506000831115612f7857805191505b50909590945092505050565b6002546000805460015460405173ffffffffffffffffffffffffffffffffffffffff918216602482018181526060604484019081528951608485015289519785169763ab23c3459796909516957f39255d5b000000000000000000000000000000000000000000000000000000009593948b948b949392606483019260a4019160208801918190849084905b83811015613028578181015183820152602001613010565b50505050905090810190601f1680156130555780820380516001836020036101000a031916815260200191505b50838103825284518152845160209182019186019080838360005b83811015613088578181015183820152602001613070565b50505050905090810190601f1680156130b55780820380516001836020036101000a031916815260200191505b50604080517fffffffffffffffffffffffffffffffffffffffffffffffffffffffffffffffe08184030181529181526020820180517bffffffffffffffffffffffffffffffffffffffffffffffffffffffff167fffffffff00000000000000000000000000000000000000000000000000000000909a1699909917895280517c010000000000000000000000000000000000000000000000000000000063ffffffff8d1602815273ffffffffffffffffffffffffffffffffffffffff8b166004820190815260248201928352835160448301528351939a909950919750606401955093509150819050838360005b838110156131bb5781810151838201526020016131a3565b50505050905090810190601f1680156131e85780820380516001836020036101000a031916815260200191505b509350505050600060405180830381600087803b15801561320857600080fd5b505af1158015612ed5573d6000803e3d6000fd5b5490565b5490565b6040805173ffffffffffffffffffffffffffffffffffffffff83166024808301919091528251808303909101815260449091019091526020810180517bffffffffffffffffffffffffffffffffffffffffffffffffffffffff167f70a082310000000000000000000000000000000000000000000000000000000017905260009081806132b18684612f53565b60408051808201909152601c81527f534146455f4552435f32305f42414c414e43455f52455645525445440000000060208201529193509150821515613353576040517f08c379a000000000000000000000000000000000000000000000000000000000815260040180806020018281038252838181518152602001915080519060200190808383600083811015610670578181015183820152602001610658565b5095945050505050565b6040805173ffffffffffffffffffffffffffffffffffffffff8416602482015260448082018490528251808303909101815260649091019091526020810180517bffffffffffffffffffffffffffffffffffffffffffffffffffffffff167fa9059cbb000000000000000000000000000000000000000000000000000000001790526000906133ec85826134de565b95945050505050565b8051602002815290565b613407611b86565b60408051808201909152601881527f494e49545f414c52454144595f494e495449414c495a45440000000000000000602082015290156134a3576040517f08c379a000000000000000000000000000000000000000000000000000000000815260040180806020018281038252838181518152602001915080519060200190808383600083811015610670578181015183820152602001610658565b506134dc6134af612f15565b7febb05b386a8d34882b8711d156f463690983dc47815980fb82aeeff1aa43579e9063ffffffff61352c16565b565b6000806040516020818551602087016000895af16000811115613522573d801561350f576020811461351857613520565b60019350613520565b600183511493505b505b5090949350505050565b90555600a165627a7a723058201326e0518a902070568a2dd6271353f91527093259491504eb9c85a109dbebd50029ebb05b386a8d34882b8711d156f463690983dc47815980fb82aeeff1aa43579e",
  "devdoc": {
    "methods": {
      "allowRecoverability(address)": {
        "details": "By default deriving from AragonApp makes it recoverable",
        "params": {
          "token": "Token address that would be recovered"
        },
        "return": "bool whether the app allows the recovery"
      },
      "canPerform(address,bytes32,uint256[])": {
        "details": "Check whether an action can be performed by a sender for a particular role on this app",
        "params": {
          "_params": "Permission params for the role",
          "_role": "Role on this app",
          "_sender": "Sender of the call"
        },
        "return": "Boolean indicating whether the sender has the permissions to perform the action.        Always returns false if the app hasn't been initialized yet."
      },
      "createFlow(address,address,int96,bytes)": {
        "params": {
          "_description": "Codified string containing the flow's description",
          "_flowRate": "Flow's rate of tokens per second",
          "_receiver": "Receiver of the flow",
          "_token": "Address of super token"
        }
      },
      "deleteFlow(address,address)": {
        "params": {
          "_receiver": "Receiver of the flow",
          "_token": "Address of Super Token"
        }
      },
      "deleteOwnFlow(address)": {
        "params": {
          "_token": "Address of Super Token"
        }
      },
      "deposit(address,uint256,bool)": {
        "params": {
          "_amount": "Amount of tokens sent",
          "_isExternalDeposit": "Flag that indicates wether the assets are already in the app",
          "_token": "Address of deposited super token"
        }
      },
      "getInitializationBlock()": {
        "return": "Block number in which the contract was initialized"
      },
      "getRecoveryVault()": {
        "details": "Get the recovery vault for the app",
        "return": "Recovery vault address for the app"
      },
      "hasInitialized()": {
        "return": "Whether the contract has been initialized by the time of the current block"
      },
      "transferToVault(address)": {
        "params": {
          "_token": "Token balance to be sent to recovery vault."
        }
      },
      "updateFlow(address,address,int96,bytes)": {
        "params": {
          "_description": "Codified string containing the flow's description",
          "_flowRate": "Flow's rate of tokens per second",
          "_receiver": "Receiver of the flow",
          "_token": "Address of super token"
        }
      },
      "withdraw(address,address,uint256)": {
        "params": {
          "_amount": "Amount of tokens received",
          "_receiver": "Receiver of the withdrawed amount",
          "_token": "Address of withdrawed super token"
        }
      }
    }
  },
  "userdoc": {
    "methods": {
      "createFlow(address,address,int96,bytes)": {
        "notice": "Create a new `_token.symbol(): string` flow with a rate of `@tokenAmount(_token, _flowRate  * 30 * 24 * 3600, false, 6)` tokens per month to `_receiver`."
      },
      "deleteFlow(address,address)": {
        "notice": "Delete `_token.symbol(): string` flow to `_receiver`."
      },
      "deleteOwnFlow(address)": {
        "notice": "Delete `_token.symbol(): string` flow."
      },
      "deposit(address,uint256,bool)": {
        "notice": "Deposit `@tokenAmount(_token, _amount)`."
      },
      "transferToVault(address)": {
        "notice": "Send funds to recovery Vault. This contract should never receive funds,        but in case it does, this function allows one to recover them."
      },
      "updateFlow(address,address,int96,bytes)": {
        "notice": "Update `_token.symbol(): string` flow to `_receiver`  with a new rate of `@tokenAmount(_token, _flowRate * 30 * 24 * 3600, false, 6)` tokens per month."
      },
      "withdraw(address,address,uint256)": {
        "notice": "Withdraw `@tokenAmount(_token, _amount)` to `_receiver`."
      }
    }
  }
}